{
  "_format": "hh-sol-artifact-1",
  "contractName": "DaoSimulator",
  "sourceName": "contracts/DaoSimulator.sol",
  "abi": [
    {
      "inputs": [],
      "stateMutability": "nonpayable",
      "type": "constructor"
    },
    {
      "anonymous": false,
      "inputs": [
        {
          "indexed": true,
          "internalType": "uint256",
          "name": "proposalId",
          "type": "uint256"
        },
        {
          "indexed": false,
          "internalType": "address",
          "name": "proposer",
          "type": "address"
        },
        {
          "indexed": false,
          "internalType": "string",
          "name": "description",
          "type": "string"
        }
      ],
      "name": "ProposalCreated",
      "type": "event"
    },
    {
      "anonymous": false,
      "inputs": [
        {
          "indexed": true,
          "internalType": "uint256",
          "name": "proposalId",
          "type": "uint256"
        }
      ],
      "name": "ProposalExecuted",
      "type": "event"
    },
    {
      "anonymous": false,
      "inputs": [
        {
          "indexed": true,
          "internalType": "uint256",
          "name": "proposalId",
          "type": "uint256"
        },
        {
          "indexed": false,
          "internalType": "address",
          "name": "voter",
          "type": "address"
        },
        {
          "indexed": false,
          "internalType": "bool",
          "name": "support",
          "type": "bool"
        },
        {
          "indexed": false,
          "internalType": "uint256",
          "name": "weight",
          "type": "uint256"
        }
      ],
      "name": "VoteCast",
      "type": "event"
    },
    {
      "inputs": [],
      "name": "QUORUM_PERCENT",
      "outputs": [
        {
          "internalType": "uint256",
          "name": "",
          "type": "uint256"
        }
      ],
      "stateMutability": "view",
      "type": "function"
    },
    {
      "inputs": [],
      "name": "TOTAL_SUPPLY",
      "outputs": [
        {
          "internalType": "uint256",
          "name": "",
          "type": "uint256"
        }
      ],
      "stateMutability": "view",
      "type": "function"
    },
    {
      "inputs": [],
      "name": "claim",
      "outputs": [],
      "stateMutability": "nonpayable",
      "type": "function"
    },
    {
      "inputs": [
        {
          "internalType": "address",
          "name": "_to",
          "type": "address"
        },
        {
          "internalType": "uint256",
          "name": "_amount",
          "type": "uint256"
        }
      ],
      "name": "distributeTokens",
      "outputs": [],
      "stateMutability": "nonpayable",
      "type": "function"
    },
    {
      "inputs": [
        {
          "internalType": "uint256",
          "name": "_proposalId",
          "type": "uint256"
        }
      ],
      "name": "execute",
      "outputs": [],
      "stateMutability": "nonpayable",
      "type": "function"
    },
    {
      "inputs": [],
      "name": "getAllProposals",
      "outputs": [
        {
          "components": [
            {
              "internalType": "uint256",
              "name": "id",
              "type": "uint256"
            },
            {
              "internalType": "address",
              "name": "proposer",
              "type": "address"
            },
            {
              "internalType": "string",
              "name": "description",
              "type": "string"
            },
            {
              "internalType": "uint256",
              "name": "forVotes",
              "type": "uint256"
            },
            {
              "internalType": "uint256",
              "name": "againstVotes",
              "type": "uint256"
            },
            {
              "internalType": "uint256",
              "name": "startTime",
              "type": "uint256"
            },
            {
              "internalType": "uint256",
              "name": "deadline",
              "type": "uint256"
            },
            {
              "internalType": "bool",
              "name": "executed",
              "type": "bool"
            },
            {
              "internalType": "bool",
              "name": "canceled",
              "type": "bool"
            }
          ],
          "internalType": "struct DaoSimulator.Proposal[]",
          "name": "",
          "type": "tuple[]"
        }
      ],
      "stateMutability": "view",
      "type": "function"
    },
    {
      "inputs": [
        {
          "internalType": "uint256",
          "name": "_proposalId",
          "type": "uint256"
        }
      ],
      "name": "getProposalDetails",
      "outputs": [
        {
          "components": [
            {
              "internalType": "uint256",
              "name": "id",
              "type": "uint256"
            },
            {
              "internalType": "address",
              "name": "proposer",
              "type": "address"
            },
            {
              "internalType": "string",
              "name": "description",
              "type": "string"
            },
            {
              "internalType": "uint256",
              "name": "forVotes",
              "type": "uint256"
            },
            {
              "internalType": "uint256",
              "name": "againstVotes",
              "type": "uint256"
            },
            {
              "internalType": "uint256",
              "name": "startTime",
              "type": "uint256"
            },
            {
              "internalType": "uint256",
              "name": "deadline",
              "type": "uint256"
            },
            {
              "internalType": "bool",
              "name": "executed",
              "type": "bool"
            },
            {
              "internalType": "bool",
              "name": "canceled",
              "type": "bool"
            }
          ],
          "internalType": "struct DaoSimulator.Proposal",
          "name": "",
          "type": "tuple"
        }
      ],
      "stateMutability": "view",
      "type": "function"
    },
    {
      "inputs": [
        {
          "internalType": "address",
          "name": "",
          "type": "address"
        }
      ],
      "name": "hasClaimed",
      "outputs": [
        {
          "internalType": "bool",
          "name": "",
          "type": "bool"
        }
      ],
      "stateMutability": "view",
      "type": "function"
    },
    {
      "inputs": [
        {
          "internalType": "address",
          "name": "",
          "type": "address"
        },
        {
          "internalType": "uint256",
          "name": "",
          "type": "uint256"
        }
      ],
      "name": "hasVoted",
      "outputs": [
        {
          "internalType": "bool",
          "name": "",
          "type": "bool"
        }
      ],
      "stateMutability": "view",
      "type": "function"
    },
    {
      "inputs": [],
      "name": "owner",
      "outputs": [
        {
          "internalType": "address",
          "name": "",
          "type": "address"
        }
      ],
      "stateMutability": "view",
      "type": "function"
    },
    {
      "inputs": [],
      "name": "proposalDuration",
      "outputs": [
        {
          "internalType": "uint256",
          "name": "",
          "type": "uint256"
        }
      ],
      "stateMutability": "view",
      "type": "function"
    },
    {
      "inputs": [
        {
          "internalType": "uint256",
          "name": "",
          "type": "uint256"
        }
      ],
      "name": "proposals",
      "outputs": [
        {
          "internalType": "uint256",
          "name": "id",
          "type": "uint256"
        },
        {
          "internalType": "address",
          "name": "proposer",
          "type": "address"
        },
        {
          "internalType": "string",
          "name": "description",
          "type": "string"
        },
        {
          "internalType": "uint256",
          "name": "forVotes",
          "type": "uint256"
        },
        {
          "internalType": "uint256",
          "name": "againstVotes",
          "type": "uint256"
        },
        {
          "internalType": "uint256",
          "name": "startTime",
          "type": "uint256"
        },
        {
          "internalType": "uint256",
          "name": "deadline",
          "type": "uint256"
        },
        {
          "internalType": "bool",
          "name": "executed",
          "type": "bool"
        },
        {
          "internalType": "bool",
          "name": "canceled",
          "type": "bool"
        }
      ],
      "stateMutability": "view",
      "type": "function"
    },
    {
      "inputs": [
        {
          "internalType": "string",
          "name": "_description",
          "type": "string"
        }
      ],
      "name": "propose",
      "outputs": [
        {
          "internalType": "uint256",
          "name": "",
          "type": "uint256"
        }
      ],
      "stateMutability": "nonpayable",
      "type": "function"
    },
    {
      "inputs": [],
      "name": "totalProposalsCount",
      "outputs": [
        {
          "internalType": "uint256",
          "name": "",
          "type": "uint256"
        }
      ],
      "stateMutability": "view",
      "type": "function"
    },
    {
      "inputs": [
        {
          "internalType": "address",
          "name": "_to",
          "type": "address"
        },
        {
          "internalType": "uint256",
          "name": "_amount",
          "type": "uint256"
        }
      ],
      "name": "transferTokens",
      "outputs": [],
      "stateMutability": "nonpayable",
      "type": "function"
    },
    {
      "inputs": [
        {
          "internalType": "address",
          "name": "",
          "type": "address"
        }
      ],
      "name": "userBalances",
      "outputs": [
        {
          "internalType": "uint256",
          "name": "",
          "type": "uint256"
        }
      ],
      "stateMutability": "view",
      "type": "function"
    },
    {
      "inputs": [
        {
          "internalType": "uint256",
          "name": "_proposalId",
          "type": "uint256"
        },
        {
          "internalType": "bool",
          "name": "_support",
          "type": "bool"
        }
      ],
      "name": "vote",
      "outputs": [],
      "stateMutability": "nonpayable",
      "type": "function"
    }
  ],
  "bytecode": "0x60806040526203f480600555348015601657600080fd5b50336000806101000a81548173ffffffffffffffffffffffffffffffffffffffff021916908373ffffffffffffffffffffffffffffffffffffffff1602179055506000600481905550611388600260003373ffffffffffffffffffffffffffffffffffffffff1673ffffffffffffffffffffffffffffffffffffffff168152602001908152602001600020819055506127d9806100b46000396000f3fe608060405234801561001057600080fd5b506004361061010b5760003560e01c806373b2e80e116100a2578063aa98df3911610071578063aa98df39146102c4578063bec3fa17146102f4578063c9d27afe14610310578063cceb68f51461032c578063fe0d94c11461034a5761010b565b806373b2e80e1461023a578063810c19961461026a5780638da5cb5b14610288578063902d55a5146102a65761010b565b806330109962116100de57806330109962146101b25780633b4d01a7146101d057806342545825146102005780634e71d92d146102305761010b565b8063013cf08b14610110578063158a498814610148578063208fb5901461016457806326224c6414610182575b600080fd5b61012a600480360381019061012591906114c3565b610366565b60405161013f999897969594939291906115eb565b60405180910390f35b610162600480360381019061015d91906116ab565b610476565b005b61016c61072a565b60405161017991906116eb565b60405180910390f35b61019c60048036038101906101979190611706565b61072f565b6040516101a991906116eb565b60405180910390f35b6101ba610747565b6040516101c791906116eb565b60405180910390f35b6101ea60048036038101906101e591906114c3565b61074d565b6040516101f7919061186f565b60405180910390f35b61021a600480360381019061021591906116ab565b6108cb565b6040516102279190611891565b60405180910390f35b6102386108fa565b005b610254600480360381019061024f9190611706565b610a39565b6040516102619190611891565b60405180910390f35b610272610a59565b60405161027f91906116eb565b60405180910390f35b610290610a5f565b60405161029d91906118ac565b60405180910390f35b6102ae610a83565b6040516102bb91906116eb565b60405180910390f35b6102de60048036038101906102d991906119fc565b610a89565b6040516102eb91906116eb565b60405180910390f35b61030e600480360381019061030991906116ab565b610c3d565b005b61032a60048036038101906103259190611a71565b610d6f565b005b61033461102f565b6040516103419190611c38565b60405180910390f35b610364600480360381019061035f91906114c3565b61124f565b005b60016020528060005260406000206000915090508060000154908060010160009054906101000a900473ffffffffffffffffffffffffffffffffffffffff16908060020180546103b590611c89565b80601f01602080910402602001604051908101604052809291908181526020018280546103e190611c89565b801561042e5780601f106104035761010080835404028352916020019161042e565b820191906000526020600020905b81548152906001019060200180831161041157829003601f168201915b5050505050908060030154908060040154908060050154908060060154908060070160009054906101000a900460ff16908060070160019054906101000a900460ff16905089565b60008054906101000a900473ffffffffffffffffffffffffffffffffffffffff1673ffffffffffffffffffffffffffffffffffffffff163373ffffffffffffffffffffffffffffffffffffffff1614610504576040517f08c379a00000000000000000000000000000000000000000000000000000000081526004016104fb90611d06565b60405180910390fd5b600073ffffffffffffffffffffffffffffffffffffffff168273ffffffffffffffffffffffffffffffffffffffff1603610573576040517f08c379a000000000000000000000000000000000000000000000000000000000815260040161056a90611d72565b60405180910390fd5b600081116105b6576040517f08c379a00000000000000000000000000000000000000000000000000000000081526004016105ad90611dde565b60405180910390fd5b80600260008060009054906101000a900473ffffffffffffffffffffffffffffffffffffffff1673ffffffffffffffffffffffffffffffffffffffff1673ffffffffffffffffffffffffffffffffffffffff168152602001908152602001600020541015610659576040517f08c379a000000000000000000000000000000000000000000000000000000000815260040161065090611e4a565b60405180910390fd5b80600260008060009054906101000a900473ffffffffffffffffffffffffffffffffffffffff1673ffffffffffffffffffffffffffffffffffffffff1673ffffffffffffffffffffffffffffffffffffffff16815260200190815260200160002060008282546106c99190611e99565b9250508190555080600260008473ffffffffffffffffffffffffffffffffffffffff1673ffffffffffffffffffffffffffffffffffffffff168152602001908152602001600020600082825461071f9190611ecd565b925050819055505050565b601481565b60026020528060005260406000206000915090505481565b60055481565b610755611413565b6001600083815260200190815260200160002060405180610120016040529081600082015481526020016001820160009054906101000a900473ffffffffffffffffffffffffffffffffffffffff1673ffffffffffffffffffffffffffffffffffffffff1673ffffffffffffffffffffffffffffffffffffffff1681526020016002820180546107e490611c89565b80601f016020809104026020016040519081016040528092919081815260200182805461081090611c89565b801561085d5780601f106108325761010080835404028352916020019161085d565b820191906000526020600020905b81548152906001019060200180831161084057829003601f168201915b50505050508152602001600382015481526020016004820154815260200160058201548152602001600682015481526020016007820160009054906101000a900460ff161515151581526020016007820160019054906101000a900460ff1615151515815250509050919050565b60036020528160005260406000206020528060005260406000206000915091509054906101000a900460ff1681565b600660003373ffffffffffffffffffffffffffffffffffffffff1673ffffffffffffffffffffffffffffffffffffffff16815260200190815260200160002060009054906101000a900460ff1615610987576040517f08c379a000000000000000000000000000000000000000000000000000000000815260040161097e90611f4d565b60405180910390fd5b6001600660003373ffffffffffffffffffffffffffffffffffffffff1673ffffffffffffffffffffffffffffffffffffffff16815260200190815260200160002060006101000a81548160ff021916908315150217905550611388600260003373ffffffffffffffffffffffffffffffffffffffff1673ffffffffffffffffffffffffffffffffffffffff1681526020019081526020016000206000828254610a309190611ecd565b92505081905550565b60066020528060005260406000206000915054906101000a900460ff1681565b60045481565b60008054906101000a900473ffffffffffffffffffffffffffffffffffffffff1681565b61271081565b600080600260003373ffffffffffffffffffffffffffffffffffffffff1673ffffffffffffffffffffffffffffffffffffffff1681526020019081526020016000205411610b0c576040517f08c379a0000000000000000000000000000000000000000000000000000000008152600401610b0390611fb9565b60405180910390fd5b60046000815480929190610b1f90611fd9565b9190505550600060016000600454815260200190815260200160002090506004548160000181905550338160010160006101000a81548173ffffffffffffffffffffffffffffffffffffffff021916908373ffffffffffffffffffffffffffffffffffffffff16021790555082816002019081610b9c91906121cd565b5042816005018190555060055442610bb49190611ecd565b816006018190555060008160070160006101000a81548160ff02191690831515021790555060008160070160016101000a81548160ff0219169083151502179055506004547f7585f467599d0f008985f231af99293be388626ac16ca59505c2f8f88969cd633385604051610c2a92919061229f565b60405180910390a2600454915050919050565b80600260003373ffffffffffffffffffffffffffffffffffffffff1673ffffffffffffffffffffffffffffffffffffffff168152602001908152602001600020541015610cbf576040517f08c379a0000000000000000000000000000000000000000000000000000000008152600401610cb69061231b565b60405180910390fd5b80600260003373ffffffffffffffffffffffffffffffffffffffff1673ffffffffffffffffffffffffffffffffffffffff1681526020019081526020016000206000828254610d0e9190611e99565b9250508190555080600260008473ffffffffffffffffffffffffffffffffffffffff1673ffffffffffffffffffffffffffffffffffffffff1681526020019081526020016000206000828254610d649190611ecd565b925050819055505050565b600082118015610d8157506004548211155b610dc0576040517f08c379a0000000000000000000000000000000000000000000000000000000008152600401610db790612387565b60405180910390fd5b600360003373ffffffffffffffffffffffffffffffffffffffff1673ffffffffffffffffffffffffffffffffffffffff168152602001908152602001600020600083815260200190815260200160002060009054906101000a900460ff1615610e5e576040517f08c379a0000000000000000000000000000000000000000000000000000000008152600401610e55906123f3565b60405180910390fd5b600060016000848152602001908152602001600020905080600601544210610ebb576040517f08c379a0000000000000000000000000000000000000000000000000000000008152600401610eb29061245f565b60405180910390fd5b6000600260003373ffffffffffffffffffffffffffffffffffffffff1673ffffffffffffffffffffffffffffffffffffffff16815260200190815260200160002054905060008111610f42576040517f08c379a0000000000000000000000000000000000000000000000000000000008152600401610f39906124cb565b60405180910390fd5b8215610f685780826003016000828254610f5c9190611ecd565b92505081905550610f84565b80826004016000828254610f7c9190611ecd565b925050819055505b6001600360003373ffffffffffffffffffffffffffffffffffffffff1673ffffffffffffffffffffffffffffffffffffffff168152602001908152602001600020600086815260200190815260200160002060006101000a81548160ff021916908315150217905550837fcbdf6214089cba887ecbf35a0b6a734589959c9763342c756bb2a80ca2bc9f6e338584604051611021939291906124eb565b60405180910390a250505050565b6060600060045467ffffffffffffffff81111561104f5761104e6118d1565b5b60405190808252806020026020018201604052801561108857816020015b611075611413565b81526020019060019003908161106d5790505b5090506000600190505b6004548111611247576001600082815260200190815260200160002060405180610120016040529081600082015481526020016001820160009054906101000a900473ffffffffffffffffffffffffffffffffffffffff1673ffffffffffffffffffffffffffffffffffffffff1673ffffffffffffffffffffffffffffffffffffffff16815260200160028201805461112a90611c89565b80601f016020809104026020016040519081016040528092919081815260200182805461115690611c89565b80156111a35780601f10611178576101008083540402835291602001916111a3565b820191906000526020600020905b81548152906001019060200180831161118657829003601f168201915b50505050508152602001600382015481526020016004820154815260200160058201548152602001600682015481526020016007820160009054906101000a900460ff161515151581526020016007820160019054906101000a900460ff161515151581525050826001836112189190611e99565b8151811061122957611228612522565b5b6020026020010181905250808061123f90611fd9565b915050611092565b508091505090565b600060016000838152602001908152602001600020905080600601544210156112ad576040517f08c379a00000000000000000000000000000000000000000000000000000000081526004016112a49061259d565b60405180910390fd5b8060070160009054906101000a900460ff16156112ff576040517f08c379a00000000000000000000000000000000000000000000000000000000081526004016112f690612609565b60405180910390fd5b6000816004015482600301546113159190611ecd565b905060006064601461271061132a9190612629565b611334919061269a565b905080821015611379576040517f08c379a000000000000000000000000000000000000000000000000000000000815260040161137090612717565b60405180910390fd5b82600401548360030154116113c3576040517f08c379a00000000000000000000000000000000000000000000000000000000081526004016113ba90612783565b60405180910390fd5b60018360070160006101000a81548160ff021916908315150217905550837f712ae1383f79ac853f8d882153778e0260ef8f03b504e2866e0593e04d2b291f60405160405180910390a250505050565b60405180610120016040528060008152602001600073ffffffffffffffffffffffffffffffffffffffff16815260200160608152602001600081526020016000815260200160008152602001600081526020016000151581526020016000151581525090565b6000604051905090565b600080fd5b600080fd5b6000819050919050565b6114a08161148d565b81146114ab57600080fd5b50565b6000813590506114bd81611497565b92915050565b6000602082840312156114d9576114d8611483565b5b60006114e7848285016114ae565b91505092915050565b6114f98161148d565b82525050565b600073ffffffffffffffffffffffffffffffffffffffff82169050919050565b600061152a826114ff565b9050919050565b61153a8161151f565b82525050565b600081519050919050565b600082825260208201905092915050565b60005b8381101561157a57808201518184015260208101905061155f565b60008484015250505050565b6000601f19601f8301169050919050565b60006115a282611540565b6115ac818561154b565b93506115bc81856020860161155c565b6115c581611586565b840191505092915050565b60008115159050919050565b6115e5816115d0565b82525050565b600061012082019050611601600083018c6114f0565b61160e602083018b611531565b8181036040830152611620818a611597565b905061162f60608301896114f0565b61163c60808301886114f0565b61164960a08301876114f0565b61165660c08301866114f0565b61166360e08301856115dc565b6116716101008301846115dc565b9a9950505050505050505050565b6116888161151f565b811461169357600080fd5b50565b6000813590506116a58161167f565b92915050565b600080604083850312156116c2576116c1611483565b5b60006116d085828601611696565b92505060206116e1858286016114ae565b9150509250929050565b600060208201905061170060008301846114f0565b92915050565b60006020828403121561171c5761171b611483565b5b600061172a84828501611696565b91505092915050565b61173c8161148d565b82525050565b61174b8161151f565b82525050565b600082825260208201905092915050565b600061176d82611540565b6117778185611751565b935061178781856020860161155c565b61179081611586565b840191505092915050565b6117a4816115d0565b82525050565b6000610120830160008301516117c36000860182611733565b5060208301516117d66020860182611742565b50604083015184820360408601526117ee8282611762565b91505060608301516118036060860182611733565b5060808301516118166080860182611733565b5060a083015161182960a0860182611733565b5060c083015161183c60c0860182611733565b5060e083015161184f60e086018261179b565b5061010083015161186461010086018261179b565b508091505092915050565b6000602082019050818103600083015261188981846117aa565b905092915050565b60006020820190506118a660008301846115dc565b92915050565b60006020820190506118c16000830184611531565b92915050565b600080fd5b600080fd5b7f4e487b7100000000000000000000000000000000000000000000000000000000600052604160045260246000fd5b61190982611586565b810181811067ffffffffffffffff82111715611928576119276118d1565b5b80604052505050565b600061193b611479565b90506119478282611900565b919050565b600067ffffffffffffffff821115611967576119666118d1565b5b61197082611586565b9050602081019050919050565b82818337600083830152505050565b600061199f61199a8461194c565b611931565b9050828152602081018484840111156119bb576119ba6118cc565b5b6119c684828561197d565b509392505050565b600082601f8301126119e3576119e26118c7565b5b81356119f384826020860161198c565b91505092915050565b600060208284031215611a1257611a11611483565b5b600082013567ffffffffffffffff811115611a3057611a2f611488565b5b611a3c848285016119ce565b91505092915050565b611a4e816115d0565b8114611a5957600080fd5b50565b600081359050611a6b81611a45565b92915050565b60008060408385031215611a8857611a87611483565b5b6000611a96858286016114ae565b9250506020611aa785828601611a5c565b9150509250929050565b600081519050919050565b600082825260208201905092915050565b6000819050602082019050919050565b600061012083016000830151611af66000860182611733565b506020830151611b096020860182611742565b5060408301518482036040860152611b218282611762565b9150506060830151611b366060860182611733565b506080830151611b496080860182611733565b5060a0830151611b5c60a0860182611733565b5060c0830151611b6f60c0860182611733565b5060e0830151611b8260e086018261179b565b50610100830151611b9761010086018261179b565b508091505092915050565b6000611bae8383611add565b905092915050565b6000602082019050919050565b6000611bce82611ab1565b611bd88185611abc565b935083602082028501611bea85611acd565b8060005b85811015611c265784840389528151611c078582611ba2565b9450611c1283611bb6565b925060208a01995050600181019050611bee565b50829750879550505050505092915050565b60006020820190508181036000830152611c528184611bc3565b905092915050565b7f4e487b7100000000000000000000000000000000000000000000000000000000600052602260045260246000fd5b60006002820490506001821680611ca157607f821691505b602082108103611cb457611cb3611c5a565b5b50919050565b7f4f6e6c79206f776e65722063616e206469737472696275746520746f6b656e73600082015250565b6000611cf060208361154b565b9150611cfb82611cba565b602082019050919050565b60006020820190508181036000830152611d1f81611ce3565b9050919050565b7f496e76616c696420616464726573730000000000000000000000000000000000600082015250565b6000611d5c600f8361154b565b9150611d6782611d26565b602082019050919050565b60006020820190508181036000830152611d8b81611d4f565b9050919050565b7f416d6f756e74206d757374206265203e20300000000000000000000000000000600082015250565b6000611dc860128361154b565b9150611dd382611d92565b602082019050919050565b60006020820190508181036000830152611df781611dbb565b9050919050565b7f496e73756666696369656e742062616c616e6365000000000000000000000000600082015250565b6000611e3460148361154b565b9150611e3f82611dfe565b602082019050919050565b60006020820190508181036000830152611e6381611e27565b9050919050565b7f4e487b7100000000000000000000000000000000000000000000000000000000600052601160045260246000fd5b6000611ea48261148d565b9150611eaf8361148d565b9250828203905081811115611ec757611ec6611e6a565b5b92915050565b6000611ed88261148d565b9150611ee38361148d565b9250828201905080821115611efb57611efa611e6a565b5b92915050565b7f44414f3a20416c726561647920636c61696d6564000000000000000000000000600082015250565b6000611f3760148361154b565b9150611f4282611f01565b602082019050919050565b60006020820190508181036000830152611f6681611f2a565b9050919050565b7f44414f3a204d75737420686f6c6420746f6b656e7320746f2070726f706f7365600082015250565b6000611fa360208361154b565b9150611fae82611f6d565b602082019050919050565b60006020820190508181036000830152611fd281611f96565b9050919050565b6000611fe48261148d565b91507fffffffffffffffffffffffffffffffffffffffffffffffffffffffffffffffff820361201657612015611e6a565b5b600182019050919050565b60008190508160005260206000209050919050565b60006020601f8301049050919050565b600082821b905092915050565b6000600883026120837fffffffffffffffffffffffffffffffffffffffffffffffffffffffffffffffff82612046565b61208d8683612046565b95508019841693508086168417925050509392505050565b6000819050919050565b60006120ca6120c56120c08461148d565b6120a5565b61148d565b9050919050565b6000819050919050565b6120e4836120af565b6120f86120f0826120d1565b848454612053565b825550505050565b600090565b61210d612100565b6121188184846120db565b505050565b5b8181101561213c57612131600082612105565b60018101905061211e565b5050565b601f8211156121815761215281612021565b61215b84612036565b8101602085101561216a578190505b61217e61217685612036565b83018261211d565b50505b505050565b600082821c905092915050565b60006121a460001984600802612186565b1980831691505092915050565b60006121bd8383612193565b9150826002028217905092915050565b6121d682611540565b67ffffffffffffffff8111156121ef576121ee6118d1565b5b6121f98254611c89565b612204828285612140565b600060209050601f8311600181146122375760008415612225578287015190505b61222f85826121b1565b865550612297565b601f19841661224586612021565b60005b8281101561226d57848901518255600182019150602085019450602081019050612248565b8683101561228a5784890151612286601f891682612193565b8355505b6001600288020188555050505b505050505050565b60006040820190506122b46000830185611531565b81810360208301526122c68184611597565b90509392505050565b7f44414f3a20496e73756666696369656e7420746f6b656e2062616c616e636500600082015250565b6000612305601f8361154b565b9150612310826122cf565b602082019050919050565b60006020820190508181036000830152612334816122f8565b9050919050565b7f44414f3a20496e76616c69642049440000000000000000000000000000000000600082015250565b6000612371600f8361154b565b915061237c8261233b565b602082019050919050565b600060208201905081810360008301526123a081612364565b9050919050565b7f44414f3a20416c726561647920766f7465640000000000000000000000000000600082015250565b60006123dd60128361154b565b91506123e8826123a7565b602082019050919050565b6000602082019050818103600083015261240c816123d0565b9050919050565b7f44414f3a20566f74696e6720656e646564000000000000000000000000000000600082015250565b600061244960118361154b565b915061245482612413565b602082019050919050565b600060208201905081810360008301526124788161243c565b9050919050565b7f44414f3a204e6f20746f6b656e73000000000000000000000000000000000000600082015250565b60006124b5600e8361154b565b91506124c08261247f565b602082019050919050565b600060208201905081810360008301526124e4816124a8565b9050919050565b60006060820190506125006000830186611531565b61250d60208301856115dc565b61251a60408301846114f0565b949350505050565b7f4e487b7100000000000000000000000000000000000000000000000000000000600052603260045260246000fd5b7f44414f3a20566f74696e67206163746976650000000000000000000000000000600082015250565b600061258760128361154b565b915061259282612551565b602082019050919050565b600060208201905081810360008301526125b68161257a565b9050919050565b7f44414f3a20416c72656164792065786563757465640000000000000000000000600082015250565b60006125f360158361154b565b91506125fe826125bd565b602082019050919050565b60006020820190508181036000830152612622816125e6565b9050919050565b60006126348261148d565b915061263f8361148d565b925082820261264d8161148d565b9150828204841483151761266457612663611e6a565b5b5092915050565b7f4e487b7100000000000000000000000000000000000000000000000000000000600052601260045260246000fd5b60006126a58261148d565b91506126b08361148d565b9250826126c0576126bf61266b565b5b828204905092915050565b7f44414f3a204e6f2071756f72756d000000000000000000000000000000000000600082015250565b6000612701600e8361154b565b915061270c826126cb565b602082019050919050565b60006020820190508181036000830152612730816126f4565b9050919050565b7f44414f3a20446566656174656400000000000000000000000000000000000000600082015250565b600061276d600d8361154b565b915061277882612737565b602082019050919050565b6000602082019050818103600083015261279c81612760565b905091905056fea2646970667358221220a51498bc2611301e300d556519d731bf414393a556b73c1cdad5e863cd8f1fb664736f6c634300081c0033",
  "linkReferences": {},
  "deployedLinkReferences": {}
}