{
  "_format": "hh-sol-artifact-1",
  "contractName": "DaoSimulator",
  "sourceName": "contracts/DaoSimulator.sol",
  "abi": [
    {
      "inputs": [],
      "stateMutability": "nonpayable",
      "type": "constructor"
    },
    {
      "anonymous": false,
      "inputs": [
        {
          "indexed": true,
          "internalType": "uint256",
          "name": "proposalId",
          "type": "uint256"
        },
        {
          "indexed": false,
          "internalType": "address",
          "name": "proposer",
          "type": "address"
        },
        {
          "indexed": false,
          "internalType": "string",
          "name": "description",
          "type": "string"
        }
      ],
      "name": "ProposalCreated",
      "type": "event"
    },
    {
      "anonymous": false,
      "inputs": [
        {
          "indexed": true,
          "internalType": "uint256",
          "name": "proposalId",
          "type": "uint256"
        }
      ],
      "name": "ProposalExecuted",
      "type": "event"
    },
    {
      "anonymous": false,
      "inputs": [
        {
          "indexed": true,
          "internalType": "uint256",
          "name": "proposalId",
          "type": "uint256"
        },
        {
          "indexed": false,
          "internalType": "address",
          "name": "voter",
          "type": "address"
        },
        {
          "indexed": false,
          "internalType": "bool",
          "name": "support",
          "type": "bool"
        },
        {
          "indexed": false,
          "internalType": "uint256",
          "name": "weight",
          "type": "uint256"
        }
      ],
      "name": "VoteCast",
      "type": "event"
    },
    {
      "inputs": [],
      "name": "QUORUM_PERCENT",
      "outputs": [
        {
          "internalType": "uint256",
          "name": "",
          "type": "uint256"
        }
      ],
      "stateMutability": "view",
      "type": "function"
    },
    {
      "inputs": [],
      "name": "TOTAL_SUPPLY",
      "outputs": [
        {
          "internalType": "uint256",
          "name": "",
          "type": "uint256"
        }
      ],
      "stateMutability": "view",
      "type": "function"
    },
    {
      "inputs": [
        {
          "internalType": "address",
          "name": "_to",
          "type": "address"
        },
        {
          "internalType": "uint256",
          "name": "_amount",
          "type": "uint256"
        }
      ],
      "name": "distributeTokens",
      "outputs": [],
      "stateMutability": "nonpayable",
      "type": "function"
    },
    {
      "inputs": [
        {
          "internalType": "uint256",
          "name": "_proposalId",
          "type": "uint256"
        }
      ],
      "name": "execute",
      "outputs": [],
      "stateMutability": "nonpayable",
      "type": "function"
    },
    {
      "inputs": [],
      "name": "getAllProposals",
      "outputs": [
        {
          "components": [
            {
              "internalType": "uint256",
              "name": "id",
              "type": "uint256"
            },
            {
              "internalType": "address",
              "name": "proposer",
              "type": "address"
            },
            {
              "internalType": "string",
              "name": "description",
              "type": "string"
            },
            {
              "internalType": "uint256",
              "name": "forVotes",
              "type": "uint256"
            },
            {
              "internalType": "uint256",
              "name": "againstVotes",
              "type": "uint256"
            },
            {
              "internalType": "uint256",
              "name": "startTime",
              "type": "uint256"
            },
            {
              "internalType": "uint256",
              "name": "deadline",
              "type": "uint256"
            },
            {
              "internalType": "bool",
              "name": "executed",
              "type": "bool"
            },
            {
              "internalType": "bool",
              "name": "canceled",
              "type": "bool"
            }
          ],
          "internalType": "struct DaoSimulator.Proposal[]",
          "name": "",
          "type": "tuple[]"
        }
      ],
      "stateMutability": "view",
      "type": "function"
    },
    {
      "inputs": [
        {
          "internalType": "uint256",
          "name": "_proposalId",
          "type": "uint256"
        }
      ],
      "name": "getProposalDetails",
      "outputs": [
        {
          "components": [
            {
              "internalType": "uint256",
              "name": "id",
              "type": "uint256"
            },
            {
              "internalType": "address",
              "name": "proposer",
              "type": "address"
            },
            {
              "internalType": "string",
              "name": "description",
              "type": "string"
            },
            {
              "internalType": "uint256",
              "name": "forVotes",
              "type": "uint256"
            },
            {
              "internalType": "uint256",
              "name": "againstVotes",
              "type": "uint256"
            },
            {
              "internalType": "uint256",
              "name": "startTime",
              "type": "uint256"
            },
            {
              "internalType": "uint256",
              "name": "deadline",
              "type": "uint256"
            },
            {
              "internalType": "bool",
              "name": "executed",
              "type": "bool"
            },
            {
              "internalType": "bool",
              "name": "canceled",
              "type": "bool"
            }
          ],
          "internalType": "struct DaoSimulator.Proposal",
          "name": "",
          "type": "tuple"
        }
      ],
      "stateMutability": "view",
      "type": "function"
    },
    {
      "inputs": [
        {
          "internalType": "address",
          "name": "",
          "type": "address"
        },
        {
          "internalType": "uint256",
          "name": "",
          "type": "uint256"
        }
      ],
      "name": "hasVoted",
      "outputs": [
        {
          "internalType": "bool",
          "name": "",
          "type": "bool"
        }
      ],
      "stateMutability": "view",
      "type": "function"
    },
    {
      "inputs": [],
      "name": "owner",
      "outputs": [
        {
          "internalType": "address",
          "name": "",
          "type": "address"
        }
      ],
      "stateMutability": "view",
      "type": "function"
    },
    {
      "inputs": [],
      "name": "proposalDuration",
      "outputs": [
        {
          "internalType": "uint256",
          "name": "",
          "type": "uint256"
        }
      ],
      "stateMutability": "view",
      "type": "function"
    },
    {
      "inputs": [
        {
          "internalType": "uint256",
          "name": "",
          "type": "uint256"
        }
      ],
      "name": "proposals",
      "outputs": [
        {
          "internalType": "uint256",
          "name": "id",
          "type": "uint256"
        },
        {
          "internalType": "address",
          "name": "proposer",
          "type": "address"
        },
        {
          "internalType": "string",
          "name": "description",
          "type": "string"
        },
        {
          "internalType": "uint256",
          "name": "forVotes",
          "type": "uint256"
        },
        {
          "internalType": "uint256",
          "name": "againstVotes",
          "type": "uint256"
        },
        {
          "internalType": "uint256",
          "name": "startTime",
          "type": "uint256"
        },
        {
          "internalType": "uint256",
          "name": "deadline",
          "type": "uint256"
        },
        {
          "internalType": "bool",
          "name": "executed",
          "type": "bool"
        },
        {
          "internalType": "bool",
          "name": "canceled",
          "type": "bool"
        }
      ],
      "stateMutability": "view",
      "type": "function"
    },
    {
      "inputs": [
        {
          "internalType": "string",
          "name": "_description",
          "type": "string"
        }
      ],
      "name": "propose",
      "outputs": [
        {
          "internalType": "uint256",
          "name": "",
          "type": "uint256"
        }
      ],
      "stateMutability": "nonpayable",
      "type": "function"
    },
    {
      "inputs": [],
      "name": "totalProposalsCount",
      "outputs": [
        {
          "internalType": "uint256",
          "name": "",
          "type": "uint256"
        }
      ],
      "stateMutability": "view",
      "type": "function"
    },
    {
      "inputs": [
        {
          "internalType": "address",
          "name": "_to",
          "type": "address"
        },
        {
          "internalType": "uint256",
          "name": "_amount",
          "type": "uint256"
        }
      ],
      "name": "transferTokens",
      "outputs": [],
      "stateMutability": "nonpayable",
      "type": "function"
    },
    {
      "inputs": [
        {
          "internalType": "address",
          "name": "",
          "type": "address"
        }
      ],
      "name": "userBalances",
      "outputs": [
        {
          "internalType": "uint256",
          "name": "",
          "type": "uint256"
        }
      ],
      "stateMutability": "view",
      "type": "function"
    },
    {
      "inputs": [
        {
          "internalType": "uint256",
          "name": "_proposalId",
          "type": "uint256"
        },
        {
          "internalType": "bool",
          "name": "_support",
          "type": "bool"
        }
      ],
      "name": "vote",
      "outputs": [],
      "stateMutability": "nonpayable",
      "type": "function"
    }
  ],
  "bytecode": "0x60806040526203f480600555348015601657600080fd5b50336000806101000a81548173ffffffffffffffffffffffffffffffffffffffff021916908373ffffffffffffffffffffffffffffffffffffffff1602179055506000600481905550611388600260003373ffffffffffffffffffffffffffffffffffffffff1673ffffffffffffffffffffffffffffffffffffffff168152602001908152602001600020819055506125be806100b46000396000f3fe608060405234801561001057600080fd5b50600436106100f55760003560e01c8063810c199611610097578063bec3fa1711610066578063bec3fa17146102a4578063c9d27afe146102c0578063cceb68f5146102dc578063fe0d94c1146102fa576100f5565b8063810c19961461021a5780638da5cb5b14610238578063902d55a514610256578063aa98df3914610274576100f5565b806326224c64116100d357806326224c641461016c578063301099621461019c5780633b4d01a7146101ba57806342545825146101ea576100f5565b8063013cf08b146100fa578063158a498814610132578063208fb5901461014e575b600080fd5b610114600480360381019061010f9190611314565b610316565b6040516101299998979695949392919061143c565b60405180910390f35b61014c600480360381019061014791906114fc565b610426565b005b6101566106da565b604051610163919061153c565b60405180910390f35b61018660048036038101906101819190611557565b6106df565b604051610193919061153c565b60405180910390f35b6101a46106f7565b6040516101b1919061153c565b60405180910390f35b6101d460048036038101906101cf9190611314565b6106fd565b6040516101e191906116c0565b60405180910390f35b61020460048036038101906101ff91906114fc565b61087b565b60405161021191906116e2565b60405180910390f35b6102226108aa565b60405161022f919061153c565b60405180910390f35b6102406108b0565b60405161024d91906116fd565b60405180910390f35b61025e6108d4565b60405161026b919061153c565b60405180910390f35b61028e6004803603810190610289919061184d565b6108da565b60405161029b919061153c565b60405180910390f35b6102be60048036038101906102b991906114fc565b610a8e565b005b6102da60048036038101906102d591906118c2565b610bc0565b005b6102e4610e80565b6040516102f19190611a89565b60405180910390f35b610314600480360381019061030f9190611314565b6110a0565b005b60016020528060005260406000206000915090508060000154908060010160009054906101000a900473ffffffffffffffffffffffffffffffffffffffff169080600201805461036590611ada565b80601f016020809104026020016040519081016040528092919081815260200182805461039190611ada565b80156103de5780601f106103b3576101008083540402835291602001916103de565b820191906000526020600020905b8154815290600101906020018083116103c157829003601f168201915b5050505050908060030154908060040154908060050154908060060154908060070160009054906101000a900460ff16908060070160019054906101000a900460ff16905089565b60008054906101000a900473ffffffffffffffffffffffffffffffffffffffff1673ffffffffffffffffffffffffffffffffffffffff163373ffffffffffffffffffffffffffffffffffffffff16146104b4576040517f08c379a00000000000000000000000000000000000000000000000000000000081526004016104ab90611b57565b60405180910390fd5b600073ffffffffffffffffffffffffffffffffffffffff168273ffffffffffffffffffffffffffffffffffffffff1603610523576040517f08c379a000000000000000000000000000000000000000000000000000000000815260040161051a90611bc3565b60405180910390fd5b60008111610566576040517f08c379a000000000000000000000000000000000000000000000000000000000815260040161055d90611c2f565b60405180910390fd5b80600260008060009054906101000a900473ffffffffffffffffffffffffffffffffffffffff1673ffffffffffffffffffffffffffffffffffffffff1673ffffffffffffffffffffffffffffffffffffffff168152602001908152602001600020541015610609576040517f08c379a000000000000000000000000000000000000000000000000000000000815260040161060090611c9b565b60405180910390fd5b80600260008060009054906101000a900473ffffffffffffffffffffffffffffffffffffffff1673ffffffffffffffffffffffffffffffffffffffff1673ffffffffffffffffffffffffffffffffffffffff16815260200190815260200160002060008282546106799190611cea565b9250508190555080600260008473ffffffffffffffffffffffffffffffffffffffff1673ffffffffffffffffffffffffffffffffffffffff16815260200190815260200160002060008282546106cf9190611d1e565b925050819055505050565b601481565b60026020528060005260406000206000915090505481565b60055481565b610705611264565b6001600083815260200190815260200160002060405180610120016040529081600082015481526020016001820160009054906101000a900473ffffffffffffffffffffffffffffffffffffffff1673ffffffffffffffffffffffffffffffffffffffff1673ffffffffffffffffffffffffffffffffffffffff16815260200160028201805461079490611ada565b80601f01602080910402602001604051908101604052809291908181526020018280546107c090611ada565b801561080d5780601f106107e25761010080835404028352916020019161080d565b820191906000526020600020905b8154815290600101906020018083116107f057829003601f168201915b50505050508152602001600382015481526020016004820154815260200160058201548152602001600682015481526020016007820160009054906101000a900460ff161515151581526020016007820160019054906101000a900460ff1615151515815250509050919050565b60036020528160005260406000206020528060005260406000206000915091509054906101000a900460ff1681565b60045481565b60008054906101000a900473ffffffffffffffffffffffffffffffffffffffff1681565b61271081565b600080600260003373ffffffffffffffffffffffffffffffffffffffff1673ffffffffffffffffffffffffffffffffffffffff168152602001908152602001600020541161095d576040517f08c379a000000000000000000000000000000000000000000000000000000000815260040161095490611d9e565b60405180910390fd5b6004600081548092919061097090611dbe565b9190505550600060016000600454815260200190815260200160002090506004548160000181905550338160010160006101000a81548173ffffffffffffffffffffffffffffffffffffffff021916908373ffffffffffffffffffffffffffffffffffffffff160217905550828160020190816109ed9190611fb2565b5042816005018190555060055442610a059190611d1e565b816006018190555060008160070160006101000a81548160ff02191690831515021790555060008160070160016101000a81548160ff0219169083151502179055506004547f7585f467599d0f008985f231af99293be388626ac16ca59505c2f8f88969cd633385604051610a7b929190612084565b60405180910390a2600454915050919050565b80600260003373ffffffffffffffffffffffffffffffffffffffff1673ffffffffffffffffffffffffffffffffffffffff168152602001908152602001600020541015610b10576040517f08c379a0000000000000000000000000000000000000000000000000000000008152600401610b0790612100565b60405180910390fd5b80600260003373ffffffffffffffffffffffffffffffffffffffff1673ffffffffffffffffffffffffffffffffffffffff1681526020019081526020016000206000828254610b5f9190611cea565b9250508190555080600260008473ffffffffffffffffffffffffffffffffffffffff1673ffffffffffffffffffffffffffffffffffffffff1681526020019081526020016000206000828254610bb59190611d1e565b925050819055505050565b600082118015610bd257506004548211155b610c11576040517f08c379a0000000000000000000000000000000000000000000000000000000008152600401610c089061216c565b60405180910390fd5b600360003373ffffffffffffffffffffffffffffffffffffffff1673ffffffffffffffffffffffffffffffffffffffff168152602001908152602001600020600083815260200190815260200160002060009054906101000a900460ff1615610caf576040517f08c379a0000000000000000000000000000000000000000000000000000000008152600401610ca6906121d8565b60405180910390fd5b600060016000848152602001908152602001600020905080600601544210610d0c576040517f08c379a0000000000000000000000000000000000000000000000000000000008152600401610d0390612244565b60405180910390fd5b6000600260003373ffffffffffffffffffffffffffffffffffffffff1673ffffffffffffffffffffffffffffffffffffffff16815260200190815260200160002054905060008111610d93576040517f08c379a0000000000000000000000000000000000000000000000000000000008152600401610d8a906122b0565b60405180910390fd5b8215610db95780826003016000828254610dad9190611d1e565b92505081905550610dd5565b80826004016000828254610dcd9190611d1e565b925050819055505b6001600360003373ffffffffffffffffffffffffffffffffffffffff1673ffffffffffffffffffffffffffffffffffffffff168152602001908152602001600020600086815260200190815260200160002060006101000a81548160ff021916908315150217905550837fcbdf6214089cba887ecbf35a0b6a734589959c9763342c756bb2a80ca2bc9f6e338584604051610e72939291906122d0565b60405180910390a250505050565b6060600060045467ffffffffffffffff811115610ea057610e9f611722565b5b604051908082528060200260200182016040528015610ed957816020015b610ec6611264565b815260200190600190039081610ebe5790505b5090506000600190505b6004548111611098576001600082815260200190815260200160002060405180610120016040529081600082015481526020016001820160009054906101000a900473ffffffffffffffffffffffffffffffffffffffff1673ffffffffffffffffffffffffffffffffffffffff1673ffffffffffffffffffffffffffffffffffffffff168152602001600282018054610f7b90611ada565b80601f0160208091040260200160405190810160405280929190818152602001828054610fa790611ada565b8015610ff45780601f10610fc957610100808354040283529160200191610ff4565b820191906000526020600020905b815481529060010190602001808311610fd757829003601f168201915b50505050508152602001600382015481526020016004820154815260200160058201548152602001600682015481526020016007820160009054906101000a900460ff161515151581526020016007820160019054906101000a900460ff161515151581525050826001836110699190611cea565b8151811061107a57611079612307565b5b6020026020010181905250808061109090611dbe565b915050610ee3565b508091505090565b600060016000838152602001908152602001600020905080600601544210156110fe576040517f08c379a00000000000000000000000000000000000000000000000000000000081526004016110f590612382565b60405180910390fd5b8060070160009054906101000a900460ff1615611150576040517f08c379a0000000000000000000000000000000000000000000000000000000008152600401611147906123ee565b60405180910390fd5b6000816004015482600301546111669190611d1e565b905060006064601461271061117b919061240e565b611185919061247f565b9050808210156111ca576040517f08c379a00000000000000000000000000000000000000000000000000000000081526004016111c1906124fc565b60405180910390fd5b8260040154836003015411611214576040517f08c379a000000000000000000000000000000000000000000000000000000000815260040161120b90612568565b60405180910390fd5b60018360070160006101000a81548160ff021916908315150217905550837f712ae1383f79ac853f8d882153778e0260ef8f03b504e2866e0593e04d2b291f60405160405180910390a250505050565b60405180610120016040528060008152602001600073ffffffffffffffffffffffffffffffffffffffff16815260200160608152602001600081526020016000815260200160008152602001600081526020016000151581526020016000151581525090565b6000604051905090565b600080fd5b600080fd5b6000819050919050565b6112f1816112de565b81146112fc57600080fd5b50565b60008135905061130e816112e8565b92915050565b60006020828403121561132a576113296112d4565b5b6000611338848285016112ff565b91505092915050565b61134a816112de565b82525050565b600073ffffffffffffffffffffffffffffffffffffffff82169050919050565b600061137b82611350565b9050919050565b61138b81611370565b82525050565b600081519050919050565b600082825260208201905092915050565b60005b838110156113cb5780820151818401526020810190506113b0565b60008484015250505050565b6000601f19601f8301169050919050565b60006113f382611391565b6113fd818561139c565b935061140d8185602086016113ad565b611416816113d7565b840191505092915050565b60008115159050919050565b61143681611421565b82525050565b600061012082019050611452600083018c611341565b61145f602083018b611382565b8181036040830152611471818a6113e8565b90506114806060830189611341565b61148d6080830188611341565b61149a60a0830187611341565b6114a760c0830186611341565b6114b460e083018561142d565b6114c261010083018461142d565b9a9950505050505050505050565b6114d981611370565b81146114e457600080fd5b50565b6000813590506114f6816114d0565b92915050565b60008060408385031215611513576115126112d4565b5b6000611521858286016114e7565b9250506020611532858286016112ff565b9150509250929050565b60006020820190506115516000830184611341565b92915050565b60006020828403121561156d5761156c6112d4565b5b600061157b848285016114e7565b91505092915050565b61158d816112de565b82525050565b61159c81611370565b82525050565b600082825260208201905092915050565b60006115be82611391565b6115c881856115a2565b93506115d88185602086016113ad565b6115e1816113d7565b840191505092915050565b6115f581611421565b82525050565b6000610120830160008301516116146000860182611584565b5060208301516116276020860182611593565b506040830151848203604086015261163f82826115b3565b91505060608301516116546060860182611584565b5060808301516116676080860182611584565b5060a083015161167a60a0860182611584565b5060c083015161168d60c0860182611584565b5060e08301516116a060e08601826115ec565b506101008301516116b56101008601826115ec565b508091505092915050565b600060208201905081810360008301526116da81846115fb565b905092915050565b60006020820190506116f7600083018461142d565b92915050565b60006020820190506117126000830184611382565b92915050565b600080fd5b600080fd5b7f4e487b7100000000000000000000000000000000000000000000000000000000600052604160045260246000fd5b61175a826113d7565b810181811067ffffffffffffffff8211171561177957611778611722565b5b80604052505050565b600061178c6112ca565b90506117988282611751565b919050565b600067ffffffffffffffff8211156117b8576117b7611722565b5b6117c1826113d7565b9050602081019050919050565b82818337600083830152505050565b60006117f06117eb8461179d565b611782565b90508281526020810184848401111561180c5761180b61171d565b5b6118178482856117ce565b509392505050565b600082601f83011261183457611833611718565b5b81356118448482602086016117dd565b91505092915050565b600060208284031215611863576118626112d4565b5b600082013567ffffffffffffffff811115611881576118806112d9565b5b61188d8482850161181f565b91505092915050565b61189f81611421565b81146118aa57600080fd5b50565b6000813590506118bc81611896565b92915050565b600080604083850312156118d9576118d86112d4565b5b60006118e7858286016112ff565b92505060206118f8858286016118ad565b9150509250929050565b600081519050919050565b600082825260208201905092915050565b6000819050602082019050919050565b6000610120830160008301516119476000860182611584565b50602083015161195a6020860182611593565b506040830151848203604086015261197282826115b3565b91505060608301516119876060860182611584565b50608083015161199a6080860182611584565b5060a08301516119ad60a0860182611584565b5060c08301516119c060c0860182611584565b5060e08301516119d360e08601826115ec565b506101008301516119e86101008601826115ec565b508091505092915050565b60006119ff838361192e565b905092915050565b6000602082019050919050565b6000611a1f82611902565b611a29818561190d565b935083602082028501611a3b8561191e565b8060005b85811015611a775784840389528151611a5885826119f3565b9450611a6383611a07565b925060208a01995050600181019050611a3f565b50829750879550505050505092915050565b60006020820190508181036000830152611aa38184611a14565b905092915050565b7f4e487b7100000000000000000000000000000000000000000000000000000000600052602260045260246000fd5b60006002820490506001821680611af257607f821691505b602082108103611b0557611b04611aab565b5b50919050565b7f4f6e6c79206f776e65722063616e206469737472696275746520746f6b656e73600082015250565b6000611b4160208361139c565b9150611b4c82611b0b565b602082019050919050565b60006020820190508181036000830152611b7081611b34565b9050919050565b7f496e76616c696420616464726573730000000000000000000000000000000000600082015250565b6000611bad600f8361139c565b9150611bb882611b77565b602082019050919050565b60006020820190508181036000830152611bdc81611ba0565b9050919050565b7f416d6f756e74206d757374206265203e20300000000000000000000000000000600082015250565b6000611c1960128361139c565b9150611c2482611be3565b602082019050919050565b60006020820190508181036000830152611c4881611c0c565b9050919050565b7f496e73756666696369656e742062616c616e6365000000000000000000000000600082015250565b6000611c8560148361139c565b9150611c9082611c4f565b602082019050919050565b60006020820190508181036000830152611cb481611c78565b9050919050565b7f4e487b7100000000000000000000000000000000000000000000000000000000600052601160045260246000fd5b6000611cf5826112de565b9150611d00836112de565b9250828203905081811115611d1857611d17611cbb565b5b92915050565b6000611d29826112de565b9150611d34836112de565b9250828201905080821115611d4c57611d4b611cbb565b5b92915050565b7f44414f3a204d75737420686f6c6420746f6b656e7320746f2070726f706f7365600082015250565b6000611d8860208361139c565b9150611d9382611d52565b602082019050919050565b60006020820190508181036000830152611db781611d7b565b9050919050565b6000611dc9826112de565b91507fffffffffffffffffffffffffffffffffffffffffffffffffffffffffffffffff8203611dfb57611dfa611cbb565b5b600182019050919050565b60008190508160005260206000209050919050565b60006020601f8301049050919050565b600082821b905092915050565b600060088302611e687fffffffffffffffffffffffffffffffffffffffffffffffffffffffffffffffff82611e2b565b611e728683611e2b565b95508019841693508086168417925050509392505050565b6000819050919050565b6000611eaf611eaa611ea5846112de565b611e8a565b6112de565b9050919050565b6000819050919050565b611ec983611e94565b611edd611ed582611eb6565b848454611e38565b825550505050565b600090565b611ef2611ee5565b611efd818484611ec0565b505050565b5b81811015611f2157611f16600082611eea565b600181019050611f03565b5050565b601f821115611f6657611f3781611e06565b611f4084611e1b565b81016020851015611f4f578190505b611f63611f5b85611e1b565b830182611f02565b50505b505050565b600082821c905092915050565b6000611f8960001984600802611f6b565b1980831691505092915050565b6000611fa28383611f78565b9150826002028217905092915050565b611fbb82611391565b67ffffffffffffffff811115611fd457611fd3611722565b5b611fde8254611ada565b611fe9828285611f25565b600060209050601f83116001811461201c576000841561200a578287015190505b6120148582611f96565b86555061207c565b601f19841661202a86611e06565b60005b828110156120525784890151825560018201915060208501945060208101905061202d565b8683101561206f578489015161206b601f891682611f78565b8355505b6001600288020188555050505b505050505050565b60006040820190506120996000830185611382565b81810360208301526120ab81846113e8565b90509392505050565b7f44414f3a20496e73756666696369656e7420746f6b656e2062616c616e636500600082015250565b60006120ea601f8361139c565b91506120f5826120b4565b602082019050919050565b60006020820190508181036000830152612119816120dd565b9050919050565b7f44414f3a20496e76616c69642049440000000000000000000000000000000000600082015250565b6000612156600f8361139c565b915061216182612120565b602082019050919050565b6000602082019050818103600083015261218581612149565b9050919050565b7f44414f3a20416c726561647920766f7465640000000000000000000000000000600082015250565b60006121c260128361139c565b91506121cd8261218c565b602082019050919050565b600060208201905081810360008301526121f1816121b5565b9050919050565b7f44414f3a20566f74696e6720656e646564000000000000000000000000000000600082015250565b600061222e60118361139c565b9150612239826121f8565b602082019050919050565b6000602082019050818103600083015261225d81612221565b9050919050565b7f44414f3a204e6f20746f6b656e73000000000000000000000000000000000000600082015250565b600061229a600e8361139c565b91506122a582612264565b602082019050919050565b600060208201905081810360008301526122c98161228d565b9050919050565b60006060820190506122e56000830186611382565b6122f2602083018561142d565b6122ff6040830184611341565b949350505050565b7f4e487b7100000000000000000000000000000000000000000000000000000000600052603260045260246000fd5b7f44414f3a20566f74696e67206163746976650000000000000000000000000000600082015250565b600061236c60128361139c565b915061237782612336565b602082019050919050565b6000602082019050818103600083015261239b8161235f565b9050919050565b7f44414f3a20416c72656164792065786563757465640000000000000000000000600082015250565b60006123d860158361139c565b91506123e3826123a2565b602082019050919050565b60006020820190508181036000830152612407816123cb565b9050919050565b6000612419826112de565b9150612424836112de565b9250828202612432816112de565b9150828204841483151761244957612448611cbb565b5b5092915050565b7f4e487b7100000000000000000000000000000000000000000000000000000000600052601260045260246000fd5b600061248a826112de565b9150612495836112de565b9250826124a5576124a4612450565b5b828204905092915050565b7f44414f3a204e6f2071756f72756d000000000000000000000000000000000000600082015250565b60006124e6600e8361139c565b91506124f1826124b0565b602082019050919050565b60006020820190508181036000830152612515816124d9565b9050919050565b7f44414f3a20446566656174656400000000000000000000000000000000000000600082015250565b6000612552600d8361139c565b915061255d8261251c565b602082019050919050565b6000602082019050818103600083015261258181612545565b905091905056fea2646970667358221220f3617b60af67a7f5cfb8f64ba6ee7a065fb49e890d4874ecf3f20a5c81a8cb3c64736f6c634300081c0033",
  "linkReferences": {},
  "deployedLinkReferences": {}
}